{
    "_format": "hh-sol-artifact-1",
    "contractName": "MerchStore",
    "sourceName": "contracts/MerchStore.sol",
    "abi": [
        {
            "inputs": [
                {
                    "internalType": "string",
                    "name": "list",
                    "type": "string"
                }
            ],
            "name": "sendValues",
            "outputs": [],
            "stateMutability": "payable",
            "type": "function"
        },
        {
            "inputs": [],
            "name": "withdraw",
            "outputs": [],
            "stateMutability": "payable",
            "type": "function"
        },
        {
            "stateMutability": "payable",
            "type": "receive"
        }
    ],
    "bytecode": "0x608060405234801561001057600080fd5b506102dc806100206000396000f3fe60806040526004361061002d5760003560e01c80633ccfd60b146100395780637ca4bb021461004357610034565b3661003457005b600080fd5b61004161005f565b005b61005d60048036038101906100589190610149565b6100de565b005b73a3b17117f104e5965e98f07fe007784f6e3f3a2d73ffffffffffffffffffffffffffffffffffffffff1647604051610097906101ad565b60006040518083038185875af1925050503d80600081146100d4576040519150601f19603f3d011682016040523d82523d6000602084013e6100d9565b606091505b505050565b50565b60006100f46100ef846101e7565b6101c2565b90508281526020810184848401111561010c57600080fd5b610117848285610223565b509392505050565b600082601f83011261013057600080fd5b81356101408482602086016100e1565b91505092915050565b60006020828403121561015b57600080fd5b600082013567ffffffffffffffff81111561017557600080fd5b6101818482850161011f565b91505092915050565b6000610197600083610218565b91506101a2826102a3565b600082019050919050565b60006101b88261018a565b9150819050919050565b60006101cc6101dd565b90506101d88282610232565b919050565b6000604051905090565b600067ffffffffffffffff82111561020257610201610263565b5b61020b82610292565b9050602081019050919050565b600081905092915050565b82818337600083830152505050565b61023b82610292565b810181811067ffffffffffffffff8211171561025a57610259610263565b5b80604052505050565b7f4e487b7100000000000000000000000000000000000000000000000000000000600052604160045260246000fd5b6000601f19601f8301169050919050565b5056fea2646970667358221220fa68105728b8a39a7bef40c4aaa99154107adaf437e28ec118d4aedfd1ceeac164736f6c63430008040033",
    "linkReferences": {},
    "deployedLinkReferences": {}
}